:020000040800F2
:10000000000E0020550200085D0200085F02000893
:100010006102000863020008650200080000000099
:100020000000000000000000000000009D0100082A
:100030006902000800000000F1010008F52D000829
:100040006F0200086F0200086F0200086F020008CC
:100050006F0200086F020008590C0008CD0C000860
:10006000ED0C0008850D0008ED0D00086F0200087A
:100070006F0200086F0200086F0200086F0200089C
:100080006F0200086F0200086F0200086F0200088C
:100090006F0200086F0200086F0200086F0200087C
:1000A0006F0200086F0200086F0200086F0200086C
:1000B000912E00086F0200086F0200086F0200080E
:1000C0006F0200086F0200086F0200086F0200084C
:1000D0006F0200086F0200086F0200085530000828
:1000E0006F0200086F0200086F0200086F0200082C
:1000F0006F0200086F0200086F0200086F0200081C
:100100006F0200086F0200086F0200086F0200080B
:100110006F0200086F020008B52E00086F02000889
:100120006F0200086F0200086F0200086F020008EB
:100130006F0200086F0200086F0200086F020008DB
:100140006F0200086F0200086F0200086F020008CB
:100150006F0200086F0200086F0200086F020008BB
:100160006F0200086F0200086F0200086F020008AB
:100170006F0200086F0200086F0200086F0200089B
:100180006F0200086F020008DFF80CD000F086FA5A
:1001900000480047613D0008000E00202A4B196806
:1001A0000868B0E8F04F80F30988BFF36F8F4FF015
:1001B000000080F3118870470000000006480068C6
:1001C000006880F3088862B661B6BFF34F8FBFF353
:1001D0006F8F00DF00BF00BF08ED00E0DFF80C000C
:1001E000016841F470010160704700BF88ED00E0D4
:1001F000EFF30980BFF36F8F134B1A681EF0100FD7
:1002000008BF20ED108A20E9F04F106008B44FF0CD
:10021000500080F31188BFF34F8FBFF36F8F03F04F
:100220004DFF4FF0000080F3118808BC1968086882
:10023000B0E8F04F1EF0100F08BFB0EC108A80F34A
:100240000988BFF36F8F70473C070020EFF30580EC
:10025000704700000648804706480047FEE7FEE773
:10026000FEE7FEE7FEE7FEE7FEE7FEE7FEE7FEE766
:10027000292E00088901000800F0004230F00040FB
:100280000AD0C10D01F56071C0F3160042EA0151B8
:10029000C20840071143704700200146704730B53F
:1002A0000B46014600202022012409E021FA02F534
:1002B0009D4205D303FA02F5491B04FA02F52844CE
:1002C000151EA2F10102F1DC30BD2DE9F05F0546FB
:1002D000002092469B4688460646814640241BE005
:1002E000284641464746224600F0F9F953465A4609
:1002F000C01A914110D311461846224600F0E0F989
:100300002D1A67EB01084F4622460120002100F01C
:10031000D7F917EB00094E41201EA4F10104DFDCE0
:10032000484631462A464346BDE8F09F2DE9FE4F38
:10033000804681EA0300C00F0C46009021F0004186
:1003400023F00045B8EB0200A94105D24046214602
:1003500090461C460B46024623F00040104347D00F
:10036000270DC7F30A00C3F30A510290401A019007
:1003700040286BDAC3F3130040F4801B00989246C8
:1003800020B10023D2EB030A63EB0B0B0198594613
:10039000C0F14002504600F093F906460D46504623
:1003A0005946019A00F0ABF910EB080061410024B6
:1003B00087EA115284EAE7731A4340D0009A62B385
:1003C000019A012A4FEA075215DC001B61EB02017A
:1003D0004FF0004202EA0752CDE90042001C41F50D
:1003E000801132462B4600F0ABF903B0BDE8F08F28
:1003F00040462146F9E7001B61EB0201001C41F574
:10040000801300185B412018A2F5001747EB030189
:1004100040EAD570B6196D4111E06D084FEA360615
:1004200045EAC0754FEA0752001B61EB0201001C50
:1004300041F5801149084FEA300000195141324618
:100440002B4603B0BDE8F04F00F06BB900980122D5
:1004500040000023D0EB020263EBE07300982146DA
:100460004FEAE074B8EB000061EB0401E9E783F0C8
:1004700000435BE781F0004158E72DE9FE4F81EA38
:10048000030404F0004421F0004100944FF0000BFD
:1004900023F0004350EA01045ED052EA03045BD02B
:1004A000C3F30A54C1F30A552C44A4F2F334019463
:1004B000A0FB0254C1F3130141F48011C3F31303F1
:1004C00043F4801301FB024400FB034E840A970AA5
:1004D00044EA815447EA8357A4FB076802958D0AD2
:1004E00005FB07854FEA932C04FB0C542705029D5E
:1004F0004FEA065847EA1637B5EB08056EEB070CCE
:10050000870E920E47EA811742EA8312A7FB020187
:10051000B6EB0B0164EB00042B0D43EA0C335E18C1
:1005200044EB1C50DA465146E7FB0201C5F31304C5
:100530004FEA0B3343EA14534FEA0432019C43EA77
:100540000603A4F10C040294009CCDE900B400F071
:10055000F7F803B0BDE8F08F00200146F9E72DE978
:10056000F04D81EA030404F0004B21F000451446ED
:100570004FF0000A23F0004150EA050220D054EA6F
:1005800001021DD0C5F30A570246C5F31303C1F398
:100590001300C1F30A5640F4801543F48013A7EB0F
:1005A0000608101BD64608F2FD3873EB050002D38F
:1005B00008F1010801E092185B41B8F1000F03DA7D
:1005C00000200146BDE8F08D00204FF48011064662
:1005D00084460EE0171B73EB050705D3121B63EB74
:1005E000050306434CEA010C49084FEA3000921813
:1005F0005B4150EA0107EDD152EA030012D082EAD2
:10060000040083EA0501084305D0101BAB4106D264
:100610000122002306E000224FF0004302E06FF0C9
:10062000010253101AEB06004CEB085110EB0A00C4
:1006300041EB0B01BDE8F04D00F073B8C1F30A5275
:10064000C1F3130140F2FF3341F480119A4202DA00
:1006500000200146704740F233439A42A2F23342EF
:1006600002DC524200F03BB800F02AB830B5041E5C
:1006700071F1000404DB4FF00044404264EB0101DF
:10068000141E73F1000405DB1C464FF00043524278
:1006900063EB0403994208BF904230BD064C074DFE
:1006A00006E0E06840F0010394E807009847103442
:1006B000AC42F6D3FFF76CFD584B0008784B0008AE
:1006C000202A04DB203A00FA02F100207047914012
:1006D000C2F1200320FA03F3194390407047202A07
:1006E00004DB203A21FA02F00021704721FA02F3DC
:1006F000D040C2F120029140084319467047202A99
:1007000006DBCB17203A41FA02F043EAE07306E039
:1007100041FA02F3D040C2F1200291400843194649
:10072000704710B5141E73F1000408DA401C41F143
:10073000000192185B411A4301D120F0010010BD65
:100740002DE9F04D92469B4611B1B1FA81F202E0DB
:10075000B0FA80F220329046FFF7B2FF04460F460F
:1007600040EA0A0041EA0B0153465A46084313D0B7
:10077000114653EA010019D0C8F140025046FFF774
:10078000AEFF05460E46504659464246FFF798FFD3
:10079000084305D0012004E020463946BDE8F08D2D
:1007A0000020054346EAE0762C4337430A98630568
:1007B000E40AA0EB08000022FD0A44EA47540A308C
:1007C00002D500200146E9E7010510196941DDE97C
:1007D000084500196941BDE8F04DA2E770B58C18D5
:1007E00010F8015B15F0070301D110F8013B2A1145
:1007F00006D110F8012B03E010F8016B01F8016B32
:100800005B1EF9D12B0705D40023521E0DD401F82D
:10081000013BFAE710F8013BCB1A921C03E013F8F6
:10082000015B01F8015B521EF9D5A142D8D300202B
:1008300070BD21B1826842F00102826003E08268EB
:1008400022F00102826070470021084A1168084ABC
:100850001140D0E900231A4383681A43C3681A433E
:100860001143044AC2F804137047000004230140F6
:10087000E030FCFF002001400146C86C80B27047A8
:100880000246002013680B400BB1012000E000205D
:100890007047000030B50246002000235068104C1D
:1008A00020400D790C6844EA05242043506090688C
:1008B0000C4C2040D1E903542C438D682C434D79D6
:1008C00044EA450420439060D06A20F470000C7D17
:1008D000641EE4B2234340EA0350D06230BD0000FE
:1008E000FFFEFFFCFDF7FFC0F0B504460D460020FB
:1008F0000021092D11DDE068A5F10A0606EB460787
:10090000072606FA07F18843A5F10A0606EB460614
:1009100003FA06F10843E0600CE0206905EB4507A7
:10092000072606FA07F1884305EB450603FA06F1A8
:1009300008432061072A0FDA606B561E06EB860714
:100940001F2606FA07F18843561E06EB860605FAAF
:1009500006F10843606322E00D2A0FDA206BD61FF0
:1009600006EB86071F2606FA07F18843D61F06EB1B
:10097000860605FA06F10843206310E0E06AA2F15A
:100980000D0606EB86071F2606FA07F18843A2F13B
:100990000D0606EB860605FA06F10843E062F0BD97
:1009A000816841F0804181607047000000B58DB0E2
:1009B0000121880201F006F90121202001F0E2F86E
:1009C00080200B9003208DF8300000208DF833003C
:1009D0000BA9164800F05EFB002001904FF4803018
:1009E0000290002003904FF42060049001A8FFF7CC
:1009F0002BFF0020059009908DF819000790012029
:100A00008DF8280000208DF8180005A90848FFF788
:100A100041FF01210648FFF70CFF032301220521B6
:100A20000348FFF761FF0DB000BD00000014024055
:100A3000002201401CB50121202001F0A3F84FF451
:100A40008070009001208DF8040000208DF80600D1
:100A50008DF8070003208DF805006946044800F072
:100A600019FB4FF48071024800F088FB1CBD0000A8
:100A70000014024010B56FF0040002F0A7F910BD99
:100A800070B50446002503E000F044F860556D1C85
:100A9000052DF9DB207861780844A1780844E178D5
:100AA00008442179884202D04FF0FF3070BD002009
:100AB000FCE700001CB50121402001F063F84FF471
:100AC0000070009001208DF8040000208DF80600D1
:100AD00001208DF807008DF805006946014800F0F7
:100AE000D9FA1CBD001802401CB504464FF4007032
:100AF00000908DF8044000208DF8060001208DF84C
:100B000007008DF805006946014800F0C3FA1CBDD6
:100B1000001802402DE9F0410027002500BF3FE00A
:100B2000002413E04FF400711F4800F01EFB8046C4
:100B3000B8F1010F00D10AE00A2003F0D7F8641CD5
:100B4000062C02DD0020BDE8F08100BFEAE700BF0F
:100B5000282003F0CBF84FF40071134800F005FB98
:100B60000646012E1BD1C5F1070188403843C7B2A4
:100B7000002412E04FF400710B4800F0F6FA8046B2
:100B8000B8F1000F00D109E00A2003F0AFF8641CAF
:100B9000082C01DD0020D6E700BFEBE700BF6D1C8D
:100BA000082DBDDB3846CEE70018024070B50024A2
:100BB0000120FFF799FF4FF40071264800F0E0FA9A
:100BC000022003F059F84FF40071224800F0D6FAE1
:100BD000192003F051F84FF400711E4800F0D0FACC
:100BE0001E2003F083F80020FFF77EFF282003F08B
:100BF0007DF812E04FF40071164800F0B6FA054691
:100C0000012D00D10AE00A2003F070F8641C052CC5
:100C100002DD4FF0FF3070BD00BFEBE700BF0024E6
:100C2000282003F063F811E04FF40071094800F048
:100C30009CFA054605B90AE00A2003F057F8641C3F
:100C4000052C02DD6FF00100E5E700BFECE700BF17
:100C50000020E0E70018024010B5012000F0F6F88F
:100C6000012821D112480078C8B91248006802282A
:100C700003DB00200F49086004E00E480068401CB8
:100C80000C4908600A2002F0F7FF00F059FD0A48FD
:100C9000007820B102F0A6F9002007490870054845
:100CA000016806A002F066FB012000F0C9F810BD43
:100CB000050000201C000020340000206D656E75CA
:100CC0005F666C61673A2025640A000010B5022057
:100CD00000F0BCF8012803D18102034800F052FA69
:100CE000022000F0ADF810BD0014024010B5042041
:100CF00000F0ACF801282BD11748007840BB17480A
:100D0000007808B101F040FE1548006802281FD1A4
:100D100014A002F02FFB16480068032818DD1548C0
:100D200000680121C1EB80001149096888420FDA8F
:100D30001048006809280BD00E480068401C0D4977
:100D40000860084601680CA002F014FB00F0F8FCF3
:100D5000042000F075F810BD0500002034000020CC
:100D60001C000020706167652075700D0A0000008E
:100D70000C00002010000020706167653A25640DAA
:100D80000A00000010B5082000F060F801281AD110
:100D90000F480078B8B90F48007808B101F086FD17
:100DA0000D48006802280ED10C48006858B10B4865
:100DB0000068401E094908600846016808A002F062
:100DC000D9FA00F0BDFC082000F03AF810BD000090
:100DD00005000020340000201C000020100000202E
:100DE000706167653A25640D0A00000010B5102097
:100DF00000F02CF8012818D1502002F03DFF0D48DA
:100E0000007840B100200B4908704FF480710A4807
:100E100000F0B4F904E00948007808B102F0C0F825
:100E20004FF40071044800F0ADF9102000F008F80C
:100E300010BD000005000020001402403400002016
:100E40000149086070470000143C01400146002041
:100E5000034A12680A400AB1012000E000207047EE
:100E6000143C0140002123498279002A3AD00A46E5
:100E7000126803689A430B461A600A1D12680368D9
:100E80009A430B1D1A60027911440A6803681A43D9
:100E90000A60184A0832126803689A43154B0833EF
:100EA0001A601A1D126803689A43124B0C331A60B9
:100EB0004279102A0ED11A1F126803681A430D4B8B
:100EC00008331A601A1D126803681A43094B0C3361
:100ED0001A600DE00749427911440A6803681A4311
:100EE0000A6005E0027911440A6803689A430A60BF
:100EF00070470000003C014000B585B00121084664
:100F000000F040FE0121880300F05CFE0120039008
:100F100000208DF810008DF8130003A9114800F08F
:100F2000B9F80021084601F0A9FD012001908DF8D3
:100F30000A0000208DF808000C208DF8090001A897
:100F4000FFF790FF06208DF8000001208DF80300C8
:100F50008DF801008DF80200684600F0ABFB05B08B
:100F600000BD00000000024000B585B00121102046
:100F700000F008FE0121880300F024FE9C2003906D
:100F800000208DF810008DF8130003A9404800F0F0
:100F900081F80221042001F071FD0420019001205C
:100FA0008DF80A0000208DF808000C208DF809004B
:100FB00001A8FFF757FF08208DF8000001208DF8E9
:100FC00003008DF801008DF80200684600F072FB06
:100FD0000321042001F052FD0820019001208DF82A
:100FE0000A0000208DF808000C208DF8090001A8E7
:100FF000FFF738FF09208DF8000001208DF803006D
:101000008DF801008DF80200684600F053FB0421C2
:10101000084601F033FD1020019001208DF80A00F0
:1010200000208DF808000C208DF8090001A8FFF7BA
:1010300019FF0A208DF8000001208DF803008DF8BB
:1010400001008DF80200684600F034FB0121042005
:1010500001F014FD0220019001208DF80A0000200B
:101060008DF808000C208DF8090001A8FFF7FAFEA2
:1010700007208DF8000001208DF803008DF8010095
:101080008DF80200684600F015FB05B000BD0000B9
:1010900000100240F0B50A4600210023002400BFE2
:1010A0003DE0012505FA01F3156805EA03049C42B9
:1010B00034D105684F000326BE40B543056015795D
:1010C0004E00B5400668354305601579012D02D004
:1010D0001579022D16D185684F000326BE40B54311
:1010E000856055794E00B540866835438560456812
:1010F00001268E40B5434560456896798E40B6B26C
:1011000035434560C5684F000326BE40B543C56002
:10111000D5794E00B540C6683543C560491C1029D5
:10112000BFD3F0BDF0B5002300244D07ED0E02FA49
:1011300005F3CE1000F1200555F826504E07F70EA6
:101140000F26BE40B543CF1000F1200646F82750C9
:10115000CE1000F1200555F8265045EA0304CE10C4
:1011600000F1200545F82640F0BD02460020136935
:101170000B400BB1012000E0002070474183704715
:101180000183704742694A404261704710B5084880
:10119000FFF706FC00BF02210548FFF771FB00289E
:1011A000F9D00348FFF768FB0446204610BD000055
:1011B0000022014010B5AEB000202C902D9010A957
:1011C00000F030FE11A9002000F006FE9DF8472037
:1011D0005EA10EA802F0DEF89DF845205DA10CA8E6
:1011E00002F0D8F89DF846205AA10AA802F0D2F8D9
:1011F000002002230EAA01460090184600F0FEFBD4
:1012000007220021242000F0CFFB002002230CAA9B
:1012100001460090362000F0F1FB08220021482012
:1012200000F0C2FB002002230AAA014600905A20C7
:1012300000F0E4FB092200216C2000F0B5FB9DF8D2
:10124000410045490968884205D000F079FA9DF8C7
:101250004100414908609DF840203EA108A802F0E5
:1012600099F89DF841203BA106A802F093F89DF85B
:10127000422038A104A802F08DF8384903C9CDE90D
:1012800002010020022308AA03210090102000F090
:10129000B5FB0020022302AA03210090202000F0C9
:1012A000ADFB0020022306AA03210090382000F0A5
:1012B000A5FB0020022302AA03210090482000F091
:1012C0009DFB0020022304AA03210090602000F06F
:1012D00095FBFFF76BFC2249086008460068B8B927
:1012E0002CA8FFF7CDFB1E4908600846006878B9B6
:1012F0009DF8B1309DF8B0201AA112A802F04AF86A
:101300009DF8B3309DF8B22018A11FA802F042F852
:101310000020022312AA06210090582000F06EFB44
:101320000A220621282000F03FFB002002231FAAEA
:101330000621009000F062FBFFF728FF0446B4F599
:101340007A7F01DB01F0F6FC2EB010BD323025644F
:1013500000000000256400002C00002090420008DE
:101360003000002025642E256425250025642E25C7
:101370006400000070B5002404212748FFF7FEFE3A
:10138000082002F0B3FC04212348FFF7F9FE1420E3
:1013900002F0ACFC04212048FFF7F0FE00201F49BA
:1013A000086011E008211C48FFF7DFFE0646012E09
:1013B00000D10AE0052002F099FC641CB4F57A7FA4
:1013C00001DB002070BD00BFECE700BF0121134826
:1013D000243801F086FD002410E008210E48FFF7B4
:1013E000C4FE064606B90AE0052002F07FFC641C34
:1013F000B4F57A7F01DB0020E4E700BFEDE700BF32
:101400000648056800210548243801F06AFD3A20A5
:1014100095FBF0F0D6E700000000024024040040F5
:101420001CB50121102000F0ADFB0121082000F0C7
:10143000A9FB4FF4A060009001208DF8040000206B
:101440008DF8060002208DF8050001208DF80700B8
:1014500069461248FFF71EFE48F202000090012084
:101460008DF8040000208DF8060002208DF805009C
:1014700001208DF8070069460948FFF70BFE01209F
:101480000849086000200849C1F8BC02012007494A
:1014900008600749C1F8A8021CBD00000010024006
:1014A000000C02408482414200804142A00242423C
:1014B0000000424270B506460D46002400F0CCF90B
:1014C000782000F099F900F05DF90446012C03D171
:1014D0000FA001F04FFF70BD304600F08DF900F015
:1014E00051F90446012C03D109A001F043FFF2E7B2
:1014F000284600F081F900F045F90446012C03D19B
:1015000003A001F037FFE6E700F0C4F900BFE2E70F
:1015100073656E64206661696C310D0A000000001D
:101520001CB50121084600F02DFB01200090002091
:101530008DF8040001208DF807008DF8050069463C
:101540000B48FFF7A7FD0121102000F01BFB4FF413
:101550002770009000208DF8040001208DF807000E
:101560008DF8050069460348FFF794FD1CBD000097
:10157000000002400010024010B588B0044601216E
:10158000022000F0FFFA0121880400F00BFB02208A
:101590008DF81C004FF44060069000208DF81E006E
:1015A00001208DF81F0002208DF81D0006A91C489F
:1015B000FFF770FD07220A211948FFF7B3FD072244
:1015C0000B211748FFF7AEFD02940020ADF80C0088
:1015D000ADF80E00ADF810000C20ADF812000020A0
:1015E000ADF8140002A90F4801F0E8FD27208DF89E
:1015F000040001208DF807008DF805008DF8060025
:1016000001A800F057F8012240F22551054801F0E9
:10161000B0FD0121034801F069FD08B010BD0000D4
:1016200000040240004800401CB50121202000F0C9
:10163000A9FA4FF4C060009001208DF8040000204A
:101640008DF8060001208DF807008DF80500694629
:101650001648FFF71FFD0121102000F093FA4FF408
:10166000C040009001208DF8040000208DF8060095
:1016700001208DF807008DF8050069460C48FFF73A
:1016800009FD4FF400710948FFF77AFD4FF48061BE
:101690000648FFF775FD4FF400510548FFF770FD50
:1016A0004FF480410248FFF76BFD1CBD001402405F
:1016B0000010024070B5002100230F22C4781CB333
:1016C000174C246804F4E064C4F5E064C4F3072113
:1016D000C1F10404E3B20A4144789C40E1B2847849
:1016E000144021430C07210E0E4C057861550478F7
:1016F00004F01F050124AC4005786D11AD0005F123
:10170000E025C5F8004109E0047804F01F05012434
:10171000AC40054D0678761145F8264070BD0000B6
:101720000CED00E000E400E080E100E0024901434C
:10173000024A1160704700000000FA050CED00E05D
:1017400010B5002000F001F810BD70B50646002469
:1017500015E004F1B001C8B201F0FEFD002001F077
:10176000FBFD102001F0F8FD002504E0304601F0FB
:10177000FAFD681CC5B2802DF8DB601CC4B2082CD1
:10178000E7DB70BD10B50024002000F01FF800203A
:101790000C490860052002F0A9FA01200A49C1F8A5
:1017A000A002052002F0A2FA064878380068012855
:1017B00001D1012400E000240020024908602046F5
:1017C00010BD0000A0024242000042421CB5044687
:1017D0004FF4806000908DF8044001208DF80600E1
:1017E0008DF8070002208DF8050069460148FFF7D3
:1017F00051FC1CBD0010024070B505460120FFF7EA
:10180000E5FF00201249086000241DE0C4F1070133
:1018100001208840284020B101200D49083108608E
:1018200003E000200A4908310860052002F05EFA52
:10183000012007490860052002F058FA00200549F8
:10184000C1F8A002601CC4B2082CDFDB70BD000030
:10185000A00242420000424210B50120FFF7B6FF4D
:1018600001200A4908600A49C1F8A802052002F0CF
:101870003DFA0020054908310860052002F036FADB
:1018800000200349C1F8A00210BD0000A00242429E
:101890000000424210B50120FFF798FF00200949DF
:1018A00008600949C1F8A802052002F01FFA0120CA
:1018B00004490860052002F019FA01200249C1F824
:1018C000A80210BDA00242420000424210B56420AE
:1018D00002F0D2F9AE2001F03FFD202001F03CFDE6
:1018E000102001F039FDB02001F036FDC82001F0D4
:1018F00033FD002001F030FD102001F02DFD4020CF
:1019000001F02AFD812001F027FDFF2001F024FDD8
:10191000A12001F021FDA62001F01EFDA82001F06C
:101920001BFD3F2001F018FDA42001F015FDD32080
:1019300001F012FD002001F00FFDD52001F00CFD9B
:10194000F02001F009FDD92001F006FD222001F070
:1019500003FDDA2001F000FD122001F0FDFCDB2088
:1019600001F0FAFC202001F0F7FC8D2001F0F4FCDE
:10197000142001F0F1FCAF2001F0EEFC10BD70B5B9
:1019800004460D4605F1B001C8B201F0E5FC102196
:1019900041EA141001F0E0FC04F00F0141F00100F5
:1019A00001F0DAFC70BD00002DE9F04180460E46E2
:1019B000174600247D0131464046FFF7E0FF00BF97
:1019C00006E00D49485D01F0CEFC6D1C601CC4B200
:1019D000102CF6DB701CC1B24046FFF7D0FF00248C
:1019E00006E00549485D01F0BEFC6D1C601CC4B2F8
:1019F000102CF6DBBDE8F081540000202DE9F05FEB
:101A00000746894690469A46DDF828B0002500240E
:101A10000026BBF1000F03D0BBF1010F68D168E0D5
:101A2000BAF1010F03D0BAF1020F60D126E020E035
:101A300018F806002038C5B27E2F04DD002709F112
:101A4000010000F0FF0949463846FFF798FF0024DF
:101A500009E005EB4501464A02EB4101085D01F052
:101A600082FC601CC4B2062CF3DBB81DC7B2701C2C
:101A7000C6B218F806000028DAD138E032E018F8CB
:101A800006002038C5B2782F04DD002709F10100D7
:101A900000F0FF0949463846FFF771FF002407E0D0
:101AA00004EB0511334A505C01F05DFC601CC4B2CC
:101AB000082CF5DB09F10100C1B23846FFF75FFFE2
:101AC000002408E004EB051108312A4A505C01F0BB
:101AD0004AFC601CC4B2082CF4DB07F10800C7B252
:101AE000701CC6B218F806000028C8D100BF00BF9D
:101AF0003BE035E018F806002038C5B2782F04DD49
:101B0000002709F1010000F0FF0949463846FFF7B8
:101B100036FF002409E004EB051101F59E61154A2A
:101B2000505C01F020FC601CC4B2082CF3DB09F10E
:101B30000100C1B23846FFF722FF002409E004EBA0
:101B4000051101F59F610B4A505C01F00CFC601C13
:101B5000C4B2082CF3DB07F10800C7B2701CC6B290
:101B600018F806000028C5D100BF00BFBDE8F09FEF
:101B70009E420008C6440008014908627047000000
:101B800000000E4229B1064A12680243044B1A6053
:101B900004E0034A12688243014B1A607047000058
:101BA0003038024029B1064A12680243044B1A60D9
:101BB00004E0034A12688243014B1A607047000038
:101BC0004038024029B1064A12680243044B1A60A9
:101BD00004E0034A12688243014B1A607047000018
:101BE00044380240F0B500210022002402250026DE
:101BF0000223324F3F6807F00C0121B1042905D0C0
:101C0000082937D105E02E4F076036E02D4F0760D9
:101C100033E02A4F3F1F3F68C7F38056274F3F1FCF
:101C20003F6807F03F036EB1264FB7FBF3F7DFF8CD
:101C30008CC0ACF1040CDCF800C0CCF3881C07FBB2
:101C40000CF40CE01E4FB7FBF3F7DFF870C0ACF1FB
:101C5000040CDCF800C0CCF3881C07FB0CF4174F15
:101C60003F1F3F68C7F301477F1C7D00B4FBF5F7BA
:101C7000076002E0124F076000BF00BF0F4F3F68D0
:101C800007F0F0010909104F7A5C0768D7404760F8
:101C90000A4F3F6807F4E051890A0B4F7A5C4768A6
:101CA000D7408760054F3F6807F46041490B064FF6
:101CB0007A5C4768D740C760F0BD00000838024032
:101CC0000024F40000127A00780700200021094A5D
:101CD00011701170012802D0042808D103E00121FD
:101CE000044A117004E00521024A117000E000BFAF
:101CF00000BF70477038024001490860704700001B
:101D00003C0E4742002100F44072B2F5407F08D1FA
:101D1000094A116821F4F811084A02401143064AA1
:101D20001160054A68321268C0F30B031A43024B74
:101D300068331A607047000008380240FFFCFF0F4C
:101D4000014600BF080900EB8000420001F00F00CF
:101D50001044C0B270470146002204E0501CC2B2D9
:101D6000A1F10A00C1B20A29F8DA100741EA1060AD
:101D70007047000008B50022009200200021104AA0
:101D8000126802F04002CAB9421E0D4B1A6000BF31
:101D90000B4A126802F04001009A521C0092009A0D
:101DA000B2F5803F01D00029F2D0054A126802F056
:101DB00040020AB1012002E0002000E0012008BD3D
:101DC0000C2800400348006820F0800001490860AA
:101DD000704700000C28004070B506460C460025F0
:101DE0000E4800680E4900EA0105280CE070C5F3B2
:101DF0000420607005F03F00A070C5F342302070F1
:101E00005EB9E078FFF79CFFE0706078FFF798FF1D
:101E10006070A078FFF794FFA07070BD04280040A8
:101E20003FFFFF0070B506460C4600250F480068CE
:101E30000F4900EA0105C5F305402070C5F30620EF
:101E4000607005F07F00A07005F48000000CE07069
:101E50005EB92078FFF774FF20706078FFF770FF9D
:101E60006070A078FFF76CFFA07070BD0028004084
:101E70007F7F7F0030B504460025CA2015490860E1
:101E800053200860FFF776FF00B91DE011481C38A9
:101E9000006820F040000F491C39086008460068BF
:101EA000216808430B491C3908600A491439A068A5
:101EB000086008460068A18840EA014005491439D5
:101EC0000860FFF77FFF0125FF20024908602846D0
:101ED00030BD0000242800402DE9F04105460C46A5
:101EE000002600274DB9607800F01000102804D1BA
:101EF000607820F010000A30607005B908E0607862
:101F0000FFF71EFF0646A078FFF71AFF064600BF40
:101F100055B1E0780004617840EA0120A1780843D7
:101F2000217840EA413611E0E078FFF714FF4FEAEC
:101F300000486078FFF70FFF48EA0028A078FFF715
:101F40000AFF48EA0008207848EA4036CA201249C9
:101F5000086053200860FFF70DFF08B9002714E060
:101F60000E4830400C4920390860FFF72BFF0A4823
:101F70001C38006800F0200030B900F079F808B98A
:101F8000002702E0012700E00127FF200249086046
:101F90003846BDE8F0810000242800403FFFFF00E4
:101FA0002DE9F04105460C46002600274DB92E4884
:101FB000006800F0400000B102E00020E07000BFC7
:101FC0000DE02948006800F0400020B12078FFF7BC
:101FD000B7FE064602E00020E07000BF00BF55B12A
:101FE00020780004617840EA0120A1780843E17874
:101FF00040EA014611E02078FFF7ADFE4FEA0048C5
:102000006078FFF7A8FE48EA0028A078FFF7A3FE53
:1020100048EA0008E07848EA0046CA2012491C3124
:10202000086053200860FFF7A5FE08B9002713E0F9
:102030000E4830400C4908390860FFF7C3FE0A48D3
:10204000006800F0200030B900F012F808B900274D
:1020500002E0012700E00127FF2003491C3108604E
:102060003846BDE8F0810000082800407F7F7F00EF
:1020700008B50022009200200021CA22134B1A60EA
:1020800053221A60114A183A126822F0A0020F4B2C
:10209000183B1A6000BF0D4A183A126802F020017E
:1020A000009A521C0092009AB2F5003F01D000291C
:1020B000F1D0064A183A126802F020020AB1012053
:1020C00000E00020FF22014B1A6008BD24280040D8
:1020D00008B500220092044A0092009A02EB8002A6
:1020E0000092009A116008BD5028004000B585B0EC
:1020F00001210807FFF756FD0120FFF73DFD4FF4D2
:102100008070FFF7FFFD0120FFF7F6FD0120FFF7CC
:10211000DDFD7F20039000200290FF20049002A8A4
:10212000FFF7A8FE00208DF8070009208DF80400B5
:102130002D208DF8050028208DF8060001A900202B
:10214000FFF72EFF18208DF803000A208DF80100FC
:1021500010208DF8020001208DF800006946002053
:10216000FFF7BAFE23210020FFF7B2FF01A90020EC
:10217000FFF758FE69460020FFF72EFE9DF803008A
:102180000B4908609DF801000A4908609DF80200AB
:10219000094908609DF80400084908609DF8050099
:1021A000074908609DF806000649086005B000BDB3
:1021B0003C00002040000020440000204800002097
:1021C0004C0000205000002000B591B00120FE49D5
:1021D0000870FFF7B5FAFD4903C9CDE9030101A96C
:1021E0000020FFF71FFE02A90020FFF7F5FD9DF874
:1021F0000B00F74908609DF80900F64908609DF852
:102200000A00F54908609DF80400F44908609DF84B
:102210000500F34908609DF80600F24908602FE3C5
:10222000F148006806287DD2DFE800F00383FDFC5A
:10223000FBFA122200213020FFF7B6FB1322002107
:102240004020FFF7B1FBE248E8A102680FA801F0C7
:10225000A1F8E048E7A102680DA801F09BF8DE486C
:10226000E4A102680BA801F095F8DC48E1A102683E
:1022700009A801F08FF8E048DEA1026807A801F084
:1022800089F8D848DBA1026805A801F083F801208D
:1022900002230FAA032100901846FFF7AFFB072285
:1022A00003212420FFF780FB002002230DAA032135
:1022B00000903620FFF7A2FB082203214820FFF7F9
:1022C00073FB002002230BAA032100905A20FFF782
:1022D00095FB092203216C20FFF766FB00200223F7
:1022E00009AA062100901020FFF788FB0020022396
:1022F00003AA062100902020FFF780FB0020022384
:1023000007AA062100903820FFF778FB002002235F
:1023100003AA062100904820FFF770FB002002234B
:1023200005AA00E022E2062100906020FFF766FB8C
:10233000A1E2122200213020FFF736FB13220021F8
:102340004020FFF731FBA248A8A102680FA801F0C6
:1023500021F8A048A7A102680DA801F01BF89E482B
:10236000A4A102680BA801F015F89C48A1A102687D
:1023700009A801F00FF8A0489EA1026807A801F083
:1023800009F898489BA1026805A801F003F800200D
:1023900002230FAA032100901846FFF72FFB072204
:1023A00003212420FFF700FB012002230DAA0321B3
:1023B00000903620FFF722FB082203214820FFF778
:1023C000F3FA002002230BAA032100905A20FFF702
:1023D00015FB092203216C20FFF7E6FA00200223F7
:1023E00009AA062100901020FFF708FB0020022315
:1023F00003AA062100902020FFF700FB0020022303
:1024000007AA062100903820FFF7F8FA00200223DF
:1024100003AA062100904820FFF7F0FA002003E00D
:10242000A5E120E186E007E0022305AA062100904D
:102430006020FFF7E3FA1EE2122200213020FFF7AE
:10244000B3FA132200214020FFF7AEFA604867A1DB
:1024500002680FA800F09EFF5E4866A102680DA802
:1024600000F098FF5C4863A102680BA800F092FF9F
:102470005A4860A1026809A800F08CFF5E485DA17F
:10248000026807A800F086FF56485AA1026805A80E
:1024900000F080FF002002230FAA032100901846BD
:1024A000FFF7ACFA072203212420FFF77DFA002072
:1024B00002230DAA032100903620FFF79FFA08227D
:1024C00003214820FFF770FA012002230BAA032101
:1024D00000905A20FFF792FA092203216C20FFF79F
:1024E00063FA0020022309AA062100901020FFF7BA
:1024F00085FA0020022303AA062100902020FFF77E
:102500007DFA0020022307AA062100903820FFF759
:1025100075FA0020022303AA062100904820FFF745
:102520006DFA0020022305AA062100906020FFF723
:1025300065FAA0E1122200213020FFF735FA1322BC
:1025400000214020FFF730FA214828A102680FA897
:1025500000F020FF1F4827A102680DA800F01AFF15
:102560001D4824A102680BA800F014FF1B4821A1FC
:10257000026809A800F00EFF1F481EA1026807A804
:1025800000F008FF17481BA1026805A800F002FF31
:10259000002002230FAA032100901846FFF72EFA0D
:1025A000072203212420FFF7FFF9002002230DAAB0
:1025B000032100903620FFF721FA0822032148204A
:1025C000FFF7F2F9002019E03400002098420008DB
:1025D0003C00002040000020440000204800002073
:1025E0004C000020500000203800002032302564CC
:1025F00000000000256400002C00002002230BAA2C
:10260000032100905A20FFF7F9F9092203216C20D9
:10261000FFF7CAF90120022309AA06210090102021
:10262000FFF7ECF90020022303AA062100902020E6
:10263000FFF7E4F90020022307AA062100903820C2
:10264000FFF7DCF90020022303AA062100904820AE
:10265000FFF7D4F90020022305AA0621009060208C
:10266000FFF7CCF907E1122200213020FFF79CF997
:10267000132200214020FFF797F98548AFF294011B
:1026800002680FA800F086FE8248AFF29801026847
:102690000DA800F07FFE8048AFF2A80102680BA8E9
:1026A00000F078FE7D48AFF2B401026809A800F09E
:1026B00071FE7B48AFF2C401026807A800F06AFE11
:1026C0007848AFF2D001026805A800F063FE002050
:1026D00002230FAA032100901846FFF78FF9072263
:1026E00003212420FFF760F9002002230DAA032113
:1026F00000903620FFF782F9082203214820FFF7D7
:1027000053F9002002230BAA032100905A20FFF75F
:1027100075F9092203216C20FFF746F900200223F6
:1027200009AA062100901020FFF768F90020022373
:1027300003AA062100902020FFF760F90120022360
:1027400007AA062100903820FFF758F9002002233D
:1027500003AA062100904820FFF750F90020022329
:1027600005AA062100906020FFF748F983E01222B5
:1027700000213020FFF718F9132200214020FFF735
:1027800013F94348AFF29C1102680FA800F002FE53
:102790004048AFF2A01102680DA800F0FBFD3E48D2
:1027A000AFF2B01102680BA800F0F4FD3B48AFF2A5
:1027B000BC11026809A800F0EDFD3948AFF2CC1158
:1027C000026807A800F0E6FD3648AFF2D8110268AB
:1027D00005A800F0DFFD002002230FAA03210090CE
:1027E0001846FFF70BF9072203212420FFF7DCF836
:1027F000002002230DAA032100903620FFF7FEF8E7
:10280000082203214820FFF7CFF8002002230BAA5B
:10281000032100905A20FFF7F1F8092203216C20D0
:10282000FFF7C2F80020022309AA06210090102019
:10283000FFF7E4F80020022303AA062100902020DD
:10284000FFF7DCF80020022307AA062100903820B9
:10285000FFF7D4F80020022303AA062100904820A5
:10286000FFF7CCF80120022305AA06210090602082
:10287000FFF7C4F800BF00BF4FF4FA7001F0FCF995
:102880000948007800287FF4CBAC11B000BD0000EF
:102890003C000020400000204400002048000020B0
:1028A0002C00002050000020340000202F48006839
:1028B000062858D2DFE800F003111F2D3B492C48B1
:1028C0000068002803DC63202949086004E02848E8
:1028D0000068401E2649086045E026480068012837
:1028E00003DC0C202349086004E022480068401EF5
:1028F0002049086037E020480068012803DC1F20D9
:102900001D49086004E01C480068401E1A49086020
:1029100029E01A480068002803DC172017490860DE
:1029200004E016480068401E144908601BE0144883
:102930000068002803DC3B201149086004E01048CF
:102940000068401E0E4908600DE00E48006800282F
:1029500003DC3B200B49086004E00A480068401E85
:102960000849086000BF00BF704700003800002021
:102970003C000020400000204400002048000020CF
:102980002C0000205000002010B5354800680628B3
:1029900064D2DFE800F00313233343533148006867
:1029A000632805DBFEF7CCFE00202E49086004E01A
:1029B0002C480068401C2B4908604FE02A480068FA
:1029C0000C2805DBFEF7BCFE01202749086004E067
:1029D00025480068401C244908603FE023480068FF
:1029E0001F2805DBFEF7ACFE01202049086004E04B
:1029F0001E480068401C1D4908602FE01C48006804
:102A0000172805DBFEF79CFE00201949086004E04A
:102A100017480068401C164908601FE01548006808
:102A20003B2805DBFEF78CFE00201249086004E01D
:102A300010480068401C0F4908600FE00E4800680D
:102A40003B2805DBFEF77CFE00200B49086004E014
:102A500009480068401C0849086000BF00BF10BD5D
:102A6000380000203C0000204000002044000020EE
:102A7000480000202C0000205000002030B500222B
:102A80008B071C0F0F2303FA04F20B4B8C1053F827
:102A900024309343084C8D1044F8253023468C1085
:102AA00053F824308C07240F00FA04F42343024C1B
:102AB0008D1044F8253030BD083801400CB5002099
:102AC000019000903448006840F48030324908603A
:102AD00000BF3148006800F4003000900198401CAD
:102AE0000190009818B90198B0F5A04FF1D12A488B
:102AF000006800F4003010B10120009001E00020D7
:102B000000900098012846D123484030006840F0EA
:102B100080502149403108602048006840F440401E
:102B20001E4908601C48083000681B4908310860CD
:102B30000846006840F4004008600846006840F419
:102B4000A05008601648091F0860081F006840F080
:102B50008070091F086000BF0F48006800F0007017
:102B60000028F9D040F205700E4908600A48083084
:102B7000006820F003000849083108600846006832
:102B800040F00200086000BF03480830006800F011
:102B90000C000828F8D10CBD00380240007000403D
:102BA00008544007003C024030B52DED028B8FB039
:102BB000FEF7C6FD00204C4908608CE04A480068DA
:102BC000002838D1142200213020FEF7EDFE152216
:102BD00000214020FEF7E8FE002429E04348006879
:102BE000844200D126E0424800EB840090ED000AC8
:102BF00010EE101A0846FDF73FFB41EC180B8DED67
:102C0000008B621C3BA102A800F0C4FB00200090D6
:102C1000601C4006010E022302AA0020FEF7EEFE11
:102C2000601C4006010E0A226E20FEF7BDFE641CE9
:102C3000032CD3DB4AE02C4800688000441E0025AA
:102C40003CE021462DA000F095FB284801682DA00E
:102C500000F090FB25480068844203D12EA000F0CC
:102C600089FB32E021462EA000F084FB29462EA0ED
:102C700000F080FB1E4800EB840090ED000A10EE8F
:102C8000101A0846FDF7F8FA41EC180B8DED008B91
:102C9000621C18A102A800F07DFB002000906806CD
:102CA000010E022302AA0020FEF7A8FE6806010E0C
:102CB0000A226E20FEF778FE641C6D1C0A4800682C
:102CC000401C8000401EA042BBDC00BF032000F07F
:102CD000FDFFFEF735FD1648006802283FF46EAF91
:102CE0000FB0BDEC028B30BD100000200C000020A6
:102CF000EC07002025643A252E326600693A2564E7
:102D00000D0A0000486973746F72795F466C6167E1
:102D10003A25640D0A000000627265616B0D0A00BD
:102D2000693A25640A0000006A3A25640D0A000029
:102D30001C00002010B5FEF703FD30BF10BD0000E1
:102D400000B585B001210846FEF71CFF0420039062
:102D500001208DF8100000208DF8120002208DF85F
:102D6000130001208DF8110003A91648FEF792F90F
:102D70000820039000208DF8100002208DF8130029
:102D800001208DF8110003A90E48FEF783F90121F7
:102D90000220FEF707FF5320ADF800000020ADF839
:102DA00002004CF24F3001900020ADF80800694657
:102DB000054800F0B3F80021034800F092F805B090
:102DC00000BD00000000024000040040042808D1BB
:102DD0004FF0E021096941F004014FF0E022116158
:102DE00007E04FF0E021096921F004014FF0E022F3
:102DF0001161704710B500BF502080F31188BFF3F8
:102E00004F8FBFF36F8F00BF01F09EF918B14FF0E5
:102E100080500449086000BF002080F3118800BF83
:102E200010BD000004ED00E010B51548006840F446
:102E30007000134908601348006840F00100114910
:102E4000086000200F49083108600E4800680E49EC
:102E500008400C4908600D48091D0860081F0068FB
:102E600020F48020091F0860002006490C3108600A
:102E7000FFF724FE4FF0006001498039086010BD63
:102E800088ED00E000380240FFFFF6FE103000241D
:102E900010B50121880700F030F8012803D1810224
:102EA0000348FEF76FF90121880700F017F810BDFD
:102EB0000014024010B50121064800F01EF8012858
:102EC00003D141020448FEF75DF90121014800F0F9
:102ED00005F810BD0010004000140240CA430282F1
:102EE000704721B1028842F00102028004E00288AA
:102EF0004FF6FE731A400280704730B5024600203C
:102F000000230024158A05EA0103958905EA0104D6
:102F100013B10CB1012000E0002030BD0022028876
:102F2000184B98420ED0184B98420BD0B0F1804FFE
:102F300008D0164B984205D0154B984202D0154B3D
:102F4000984204D14FF68F731A404B881A43124BA4
:102F5000984207D0114B984204D04FF6FF431A40D5
:102F60000B891A4302804B68C3620B880385054BAB
:102F7000984202D0044B984201D18B7A03860123F8
:102F800083827047000001400004014000040040BB
:102F900000080040000C00400010004000140040F9
:102FA00010B509480068052803DB002006490860C1
:102FB00004E005480068401C0349086002480168B5
:102FC00002A000F0D7F910BD3800002074696D65CB
:102FD0005F73657474696E675F666C6167203D201E
:102FE00025640A001CB500208DF8070013480078FE
:102FF0008DF80400124800788DF80500114800781B
:103000008DF8060001A90020FEF7CAFF0E480078DF
:103010008DF803000D4800788DF801000C48007809
:103020008DF8020001208DF8000069460020FEF7AF
:1030300053FF23210020FFF74BF81CBD4800002060
:103040002C000020500000203C0000204000002008
:103050004400002010B540F22551174800F05FF8F9
:1030600048B3154800F014F9C4B21448008800F4BD
:10307000004000BBFE2C05D1012011490880002032
:10308000104908800E480088A8B10F480D490988EA
:1030900044540C480088401C0A49088008460088AF
:1030A000082808DD0020064908800448008840F40C
:1030B00000400249088010BD00480040340700204D
:1030C00038070020360700206C08002010B50446A1
:1030D0002146054800F0E1F800BF8021024800F0D9
:1030E00011F80028F9D010BD0048004021B18289B4
:1030F00042F40052828104E082894DF6FF731A4047
:103100008281704702460020B1F5007F00D100BFE8
:1031100013880B400BB1012000E00020704770B510
:103120000246002400230025002040F66A16B14222
:1031300000D100BFC1F3421501F01F03012606FABA
:1031400003F3012D02D19689334006E0022D02D10E
:10315000168A334001E0968A33400C12012606FAA3
:1031600004F41688344013B10CB1012000E00020B3
:1031700070BDF0B50346002400260025002040F66F
:103180006A17B94200D100BF1846C1F3421401F0DA
:103190001F06012707FA06F5012C01D10C3004E0C7
:1031A000022C01D1103000E014301AB107682F430F
:1031B000076002E00768AF430760F0BD2DE9FF47F5
:1031C00005460E460024A14600BFA046B08900B1C6
:1031D00000BF2C8A24F44054F08804432C82AC892C
:1031E00041F20C608443B0883189084371890843F7
:1031F0000443AC81AC8A24F44074B0890443AC82AB
:103200006846FEF7EFFC2048854202D01F48854201
:1032100002D1DDF80C9001E0DDF80890A88900F4F7
:10322000004040B109EBC90000EB091031684900CA
:10323000B0FBF1F707E009EBC90000EB09103168BA
:103240008900B0FBF1F76420B7FBF0F0040120091E
:10325000642101FB1078A88900F4004040B13220BD
:1032600000EBC800B0FBF1F000F00700044308E0F9
:10327000322000EB08106421B0FBF1F000F00F00E9
:1032800004432C81BDE8FF87001001400014014079
:1032900001468888C0F308007047C1F308028280A5
:1032A0007047000010B588B0044601210846FEF7BB
:1032B00069FC01211020FEF785FC02208DF81C001E
:1032C0004FF4C060069000208DF81E0001208DF89C
:1032D0001F0002208DF81D0006A91D48FDF7DAFE2B
:1032E000072209211A48FDF71DFF07220A21184865
:1032F000FDF718FF02940020ADF80C004FF40050C9
:10330000ADF80E000020ADF810000C20ADF8120052
:103310000020ADF8140002A90E48FFF74FFF25204A
:103320008DF8040001208DF807008DF805008DF858
:10333000060001A8FEF7BEF9012240F2255105481A
:10334000FFF717FF01210348FFF7D0FE08B010BDBB
:10335000000002400010014010B504462146002044
:10336000FEF7A8F810BD10B5044621464020FEF730
:10337000A1F810BD0FB4054B10B503A9044A02987B
:1033800000F0DEF810BC5DF814FB00003D3D0008C5
:10339000280000200FB4084B10B504A902AA039816
:1033A00000F0CEF8044602A9002000F060FC2046A0
:1033B00010BC5DF814FB00006F3C000802E008C878
:1033C000121F08C1002AFAD170477047002001E09F
:1033D00001C1121F002AFBD1704700002DE9FF5FD9
:1033E000DDE90220010DDDF838B0024318D044F6C3
:1033F0001050A1F2FF3141430D140F98012820D045
:10340000A5EB0B00401C5FEA000A4FF00004474E9A
:10341000DFF81C91A046504616D5CAF1000728E0F7
:103420000F98012443A2012808D0002100980F9B87
:10343000C0E90021C0E90243BDE8FF9F6FEA0B012C
:10344000F4E7CBF10000DEE7074612E0F80707D00B
:103450002246334640464946FDF70FF880468946E6
:103460002246334610461946FDF707F804460E4635
:103470007F10002FEAD1DDE90201BAF1000F4246C8
:103480004B4602DAFCF7F9FF01E0FDF768F8044665
:103490000E460022284BFDF7E9F803D84FF0FF3025
:1034A000014607E00022254B20463146FCF73EFF4F
:1034B000FDF7C4F8102409E0002C0ADB0A220023DF
:1034C000FCF703FF019B30321A55641E50EA0102DB
:1034D000F2D1641C019AC4F1110314440F9A012A19
:1034E00003D0012208430DD10AE0084304D0002094
:1034F0004FF0110B0F9080E7A3EB0B056D1E0DE055
:103500005B4504DD4FF0000205F1010504E003DA3C
:103510004FF00002A5F10105002AECD000980F99A8
:10352000C0E90231C0E9004586E700000000244000
:103530000000F03F300000000000F0430000E03FDA
:103540002DE9FF4F95B09B468946064600250FE2C0
:10355000252877D100242746F84A0121059400E068
:10356000044316F8013F203B01FA03F01042F7D163
:1035700030782A2811D06FF02F033078A0F1300274
:10358000092A16D8059A44F0020402EB820203EBE2
:1035900042021044761C0590EFE759F8042B05927F
:1035A000002A03DA504244F40054059044F0020427
:1035B000761C30782E2816D116F8010F44F004043A
:1035C0002A280DD06FF02F023078A0F13003092B9C
:1035D00009D807EB870302EB4303C718761CF3E710
:1035E00059F8047B761C30786C280FD006DC4C2808
:1035F00017D068280DD06A2814D104E0742810D0A0
:103600007A280FD10DE044F400140AE044F4801449
:1036100001E044F440147278824202D104F580142F
:10362000761C761C307866280BD013DC582877D0AF
:1036300009DC002875D04528F6D04628F4D0472864
:103640001AD19DE118E0632835D0642879D0652827
:1036500012D195E1702873D008DC6728F1D0692871
:103660006FD06E280DD06F2806D1B5E073282CD00E
:10367000752875D0782874D05A46179990476D1CD4
:1036800075E1C4F30250022809D003280DD0D9F8FF
:10369000001004280DD00D6009F1040967E1D9F884
:1036A0000010EA17C1E90052F6E7D9F800100D80C2
:1036B000F2E70D70F0E719F8041B8DF800100020F8
:1036C0008DF80100EA46012003E059F804AB4FF001
:1036D000FF3061074FF0000102D40DE008F1010155
:1036E0008846B9420FDA8045F8DB1AF8081000293D
:1036F000F4D108E008F1010188468142FADB1AF8AA
:1037000008100029F6D105985B46A0EB0807214672
:103710003846179A00F094FA284400EB080507E0B1
:103720004DE029E10DE01AF8010B5A461799904730
:10373000B8F10108F7D25B4621463846179A13E1E3
:1037400042E00A220092C4F302524FF0000A022A19
:1037500008D059F804CB032A4FEAEC710AD00DE0E7
:1037600029E02AE009F1070121F00702F2E802C18D
:10377000914609E00FFA8CFC4FEAEC71042A03D160
:103780004FFA8CFC4FEAEC71002907DA0A46002157
:10379000DCF1000C61EB02012D2202E0220504D5D0
:1037A0002B228DF80420012203E0E20701D0202221
:1037B000F7E7904659E00A2102E010220DE01021BF
:1037C0004FF0000A00910BE010224FF0000A44F085
:1037D00004040827009203E008224FF0000A009238
:1037E000C4F30252022A05D059F804CB0021032A5F
:1037F00008D009E009F1070121F00702F2E802C14F
:10380000914605E01FFA8CFC042A01D10CF0FF0C54
:103810004FF00008220728D5702806D0009B83F0BF
:10382000100353EA0A0305D00EE040228DF804206D
:10383000012208E05CEA010206D030228DF8042063
:103840008DF8050002229046009B83F0080353EA9E
:103850000A030AD15CEA010201D1620705D53022D0
:103860008DF804204FF001087F1E582804D034A0A2
:1038700003900EA802900DE036A0F9E7534660468B
:10388000009AFCF722FD84460398825C0298401E51
:10389000029002705CEA0100F0D1029806A9081AB1
:1038A00000F1200A600702D524F4803400E00127EB
:1038B000574502DDA7EB0A0000E0002000EB0A01FB
:1038C000009005984144401A0590E00306D45B46F9
:1038D0002146179A059800F0B3F90544002706E041
:1038E00001A85A46C05D179990476D1C7F1C47453B
:1038F000F6DBE0030CD55B462146179A059800F0ED
:103900009FF9054404E030205A46179990476D1CF2
:103910000099481E00900029F5DC08E00298029901
:103920005A460078491C0291179990476D1CBAF1CC
:103930000001AAF1010AF1DC65E10000092801009B
:103940003031323334353637383961626364656615
:1039500000000000303132333435363738394142D7
:10396000434445460000000000F058F90544761C29
:10397000307800287FF4ECAD19B02846BDE8F08F10
:10398000620700D4062709F1070222F0070CFCE8C1
:103990000223E14603F000485FEA080C02D00FF270
:1039A000702C0DE05FEA045C02D50FF2682C07E092
:1039B0005FEAC47C02D00FF2602C01E0AFF2700C21
:1039C0004FF0FF3823F00043CDF850C065280CD0ED
:1039D00006DC452809D046281DD047283DD13DE0CA
:1039E000662818D067287ED138E00021112F01DB2E
:1039F000112000E0781CCDE9000106A90EA8FFF710
:103A0000EDFCDDE90F010E9A03910021009207F110
:103A1000010A04914DE04FF000400097CDE90110FC
:103A200006A90EA8FFF7DAFCDDE90F0203920E9B50
:103A300011990022DDF80CA00093049211B9791CB1
:103A400000EB010AB7EB0A0004D4C0F1FF3007F124
:103A5000010A0490AAEB0700019044E0012F00DA6C
:103A600001270021112F01DD112000E03846CDE9AA
:103A7000000106A90EA8FFF7B1FCDDE90F010E9ABF
:103A80000391002104910092BA4621070CD40399B6
:103A9000514500DA8A46BAF1010F05DD009AAAF114
:103AA0000101515C302908D0B84202DA10F1040F4C
:103AB00006DA0121CDE9011015E0AAF10101E9E7DB
:103AC000002805DC049901440491AAEB000102E0FE
:103AD000411C514500DD8A460499401A401C019062
:103AE0004FF000400290200704D40198504501DBBC
:103AF000CDF8048000208DF84F0002980DF14F079B
:103B0000B0F1004F25D02B200E9002984FF0020804
:103B100000280CDA404202902D200E9007E00A2186
:103B20000298FCF7BCFB3031029007F8011DB8F198
:103B30000001A8F10108F2DC02980028EFD1791EFB
:103B40000E980870307800F0200040F0450007F82B
:103B5000020D12A8C01B00F107081498007800B1EC
:103B6000012000EB0A01019801EBE0710598414446
:103B7000401A401E0590E00306D45B462146179A82
:103B8000059800F05DF805441498007818B15A467D
:103B9000179990476D1CE00324D55B462146179A80
:103BA000059800F04DF805441CE00498002807DB58
:103BB000DDE90301884203DD0098405C179901E0CC
:103BC000179930205A469047049805F10105401C8A
:103BD00004900198401E019004D12E205A46179956
:103BE00090476D1CBAF10001AAF1010ADDDC05E085
:103BF00017F8010B5A46179990476D1CB8F1000150
:103C0000A8F10108F4DC5B462146179A0598ABE65B
:103C10002D0000002B000000200000002DE9F041E5
:103C2000044600251E461746880404D405E039469C
:103C30002020B0476D1C641EF9D52846BDE8F081F0
:103C40002DE9F041044600251E469046C80301D5E3
:103C5000302700E02027880404D505E04146384697
:103C6000B0476D1C641EF9D52846BDE8F0810A688E
:103C7000531C0B601070704740F21E32904200DD02
:103C80007047114A12684243521E4FF0E0235A61B6
:103C900000229A611A46126942F001021A6100BFBD
:103CA0004FF0E022116901F001021AB101F48032F3
:103CB000002AF5D04FF0E022126922F001024FF005
:103CC000E0231A6100BFDBE72400002030B5044682
:103CD000002508E04FF4FA70FFF7CEFF4FF4FA70BA
:103CE000FFF7CAFF6D1CA542F4DB30BD0146124A46
:103CF00012684A43521E4FF0E0235A6100229A6133
:103D00001A46126942F001021A610AE04FF0E022FD
:103D1000106900F4803202B104E000F0010202B93F
:103D200000E0F3E700BF4FF0E022126922F0010249
:103D30004FF0E0231A6170472000002070B5044660
:103D40000D46A1B20548FFF7A8FA00BF802103483D
:103D5000FFF7D8F90028F9D0204670BD00100140C7
:103D60001CB5002046490860FCF720FF4549086063
:103D70004FF4A060FDF7DAFCFCF75CFEFCF77AFE7E
:103D8000FDF752FCFEF7B2F9FDF7CAFBFDF7B4F8F8
:103D9000FDF7EAF84FF41650FFF784FA4FF4165087
:103DA000FDF7EAFBFCF786FEFCF700FEFEF7C8FF16
:103DB0009FED350A354880ED000A9FED350A80ED0C
:103DC000010A9FED340A80ED020A9FED330A80ED6F
:103DD000030A042031490860FDF722FBFDF776FD58
:103DE0000020FDF7B2FC0220FFF770FFFA20ADF8CB
:103DF0000000C520ADF80200BF20ADF80400BDF8FA
:103E00000000FFF763F90A20FFF770FFBDF802001A
:103E1000FFF75CF90A20FFF769FFBDF80400FFF720
:103E200055F92BE01E48006808B9FDF7C3F91C4896
:103E30000068012801D1FEF7C7F919480068022877
:103E400001D1FEF7B1FE16480068032801D100F049
:103E500031F8FDF78FFA0446214612A0FFF78AFADF
:103E6000052C07DC0A20FFF707FFFDF769FC03209C
:103E70000B4908604FF4FA70FFF7FEFED2E700002E
:103E8000380000203000002000001242EC07002023
:103E900066661242CDCC1242333313420C0000202E
:103EA0001C00002064697374616E63653A25640ABE
:103EB0000000000070B590B0012056490870FDF771
:103EC00059FA0646314654A0FFF754FA032200215E
:103ED0003020FDF769FD002211464020FDF764FD0A
:103EE000FA20ADF83800CA20ADF83A00C420ADF889
:103EF0003C004D488478C0780A2190FBF1F0C5B2AF
:103F000000BF2B46224649A101A8FFF743FA002033
:103F100048490880C820FFF7AFFEBDF83800FFF71A
:103F2000D5F80A20FFF7A8FEBDF83A00FFF7CEF853
:103F30000A20FFF7A1FEBDF83C00FFF7C7F80020FC
:103F4000022301AA032100902020FDF757FD0A2239
:103F500003215020FDF728FD032206212020FDF734
:103F600023FD002206213020FDF71EFD252C0FDB4E
:103F7000102206214020FDF717FD112206215020B6
:103F8000FDF712FD4FF480712B48FDF7F9F809E0B9
:103F90000E2206214020FDF707FD0F2206215020AA
:103FA000FDF702FD642C01DBFDF7CAFB00EE104AB1
:103FB000B8EE400A21482249096800EB810080EDF3
:103FC000000A00EE105AF8EE400AB2EE041A80EE33
:103FD000810A1A481A49096800EB8100D0ED000AED
:103FE00030EE200A15481649096800EB810080ED83
:103FF000000A13480068401C1149086000BF0548CA
:1040000000780128FBD001200E490860FDF798FBDD
:1040100010B070BD0500002064697374616E636543
:104020003A25640A000000006C08002025642E2553
:10403000640000003407002000140240EC07002058
:104040000C0000201C0000200A490968096809B911
:10405000012100E0002121B14FF0FF31064A11603B
:1040600006E004490968C968C868034A41681160E4
:1040700070470000400700206C07002001460A69D5
:10408000D1E901309860D1E9010358605068884255
:1040900001D188685060002008611068401E1060DF
:1040A0001068704742684A6093688B6093685960F3
:1040B0009160086103685B1C036070471D480068DD
:1040C00018B101201C49086032E000201A4908603C
:1040D0001A480068B0FA80F0C0F11F0101EB8100BE
:1040E000174A52F8200008B1012000E0002050B922
:1040F00000BF502080F31188BFF34F8FBFF36F8F45
:1041000000BF00BFFEE701EB81020D4B03EB820015
:1041100042685268426000F108024368934202D14B
:104120004268526842604268D268064B1A6000BF1B
:10413000704700007407002060070020540700202B
:10414000340900203C0700202DE9F0414FF0000821
:1041500044480068002877D143480068451C42481D
:10416000056015BB41480068006808B9012000E0FF
:10417000002050B900BF502080F31188BFF34F8F4B
:10418000BFF36F8F00BF00BFFEE7384807683848AD
:104190000068364908603648076036480068401CA9
:1041A00034490860FFF750FF00BF3348006885427C
:1041B0003CD300BF2D480068006808B9012000E02A
:1041C000002020B14FF0FF302B4908602DE0274838
:1041D0000068C068C4686668B54202D226480660B6
:1041E00023E0201DFFF74AFFA06A18B104F1180070
:1041F000FFF744FF94F82C10012088401F490968FC
:1042000008431E490860E16A01EB81011C4A02EB88
:104210008100211DFFF746FF1A49E06A0968C96A53
:104220008842C7D34FF00108C4E700BF15480068B3
:10423000C06A00EB8000124951F82000012801D922
:104240004FF0010805E0FFE70F480068401C0E49E9
:1042500008600E48006808B14FF001084046BDE80C
:10426000F081000074070020500700204007002064
:1042700044070020640700206C070020540700203A
:10428000340900203C0700205C0700206007002064
:10429000203A200000000000203A2000000000002A
:1042A000000000000000002F0000000007000700D1
:1042B00000147F147F1400242A7F2A1200626408ED
:1042C000132300364955225000000503000000006A
:1042D0001C224100000041221C000014083E08146A
:1042E0000008083E0808000000A060000008080858
:1042F0000808000060600000002010080402003E72
:104300005149453E0000427F40000042615149460C
:10431000002141454B31001814127F1000274545FC
:104320004539003C4A49493000017109050300360E
:104330004949493600064949291E00003636000021
:104340000000563600000008142241000014141426
:104350001414000041221408000201510906003221
:104360004959513E007C1211127C007F494949365F
:10437000003E41414122007F4141221C007F4949CA
:104380004941007F09090901003E4149497A007FFE
:104390000808087F0000417F4100002040413F01A4
:1043A000007F08142241007F40404040007F020C03
:1043B000027F007F0408107F003E4141413E007FA4
:1043C00009090906003E4151215E007F091929466D
:1043D0000046494949310001017F0101003F404049
:1043E000403F001F2040201F003F4038403F0063F7
:1043F0001408146300070870080700615149454319
:1044000000007F41410000552A552A5500004141D6
:104410007F000004020102040040404040400000D0
:1044200001020400002054545478007F484444386A
:1044300000384444442000384444487F00385454F1
:10444000541800087E0901020018A4A4A47C007F6F
:10445000080404780000447D4000004080847D0012
:10446000007F102844000000417F4000007C0418B9
:104470000478007C0804047800384444443800FC84
:10448000242424180018242418FC007C08040408A0
:1044900000485454542000043F444020003C404015
:1044A000207C001C2040201C003C4030403C00444C
:1044B00028102844001CA0A0A07C004464544C4454
:1044C0001414141414140000000000000000000074
:1044D000000000000000000000F8000000000000E4
:1044E00000333000000000100C06100C0600000025
:1044F00000000000000040C07840C0784000043F49
:1045000004043F040400007088FC08300000001818
:1045100020FF211E0000F008F000E018000000213C
:104520001C031E211E0000F00888700000001E21E0
:1045300023241927211010160E000000000000008F
:10454000000000000000000000E01804020000006D
:1045500000071820400000020418E000000000409E
:10456000201807000000404080F080404000020218
:10457000010F01020200000000F000000000010134
:10458000011F01010100000000000000000080B0D8
:1045900070000000000000000000000000000001AA
:1045A00001010101010100000000000000000030D5
:1045B000300000000000000000008060180400606F
:1045C00018060100000000E010080810E000000FCD
:1045D000102020100F00001010F800000000002034
:1045E000203F20200000007008080888700000307C
:1045F0002824222130000030088888483000001824
:10460000202020110E000000C02010F8000000073C
:104610000424243F240000F80888880808000019B2
:10462000212020110E0000E0108888180000000FE3
:10463000112020110E0000380808C83808000000BA
:10464000003F000000000070880808887000001C0F
:10465000222121221C0000E010080810E0000000C8
:10466000312222110F00000000C0C0000000000035
:10467000003030000000000000800000000000005A
:104680008060000000000000804020100800000151
:104690000204081020004040404040404000040414
:1046A00004040404040000081020408000000020DE
:1046B000100804020100007048080808F00000001B
:1046C000003036010000C030C828E810E0000718AC
:1046D000272423140B000000C038E0000000203C19
:1046E00023020227382008F8888888700000203FBD
:1046F000202020110E00C0300808080838000718D4
:1047000020202010080008F808080810E000203FCA
:10471000202020100F0008F88888E8081000203FAB
:1047200020202320180008F88888E8081000203F7F
:10473000200003000000C0300808083800000718F7
:104740002020221E020008F808000008F808203F78
:10475000210101213F20000808F80808000000207E
:10476000203F2020000000000808F8080800C08052
:1047700080807F00000008F888C028180800203FCB
:1047800020012638200008F8080000000000203F23
:1047900020202020300008F8F800F8F80800203F1A
:1047A000003F003F200008F830C00008F808203F14
:1047B000200007183F00E01008080810E0000F1064
:1047C000202020100F0008F808080808F000203FFB
:1047D000210101010000E01008080810E0000F1896
:1047E000242438504F0008F8888888887000203FBB
:1047F0002000030C302000708808080838000038BA
:10480000202121221C00180808F8080818000000C0
:10481000203F2000000008F808000008F808001FEA
:10482000202020201F000878880000C838080000D9
:1048300007380E010000F80800F80008F800033CF3
:104840000700073C030008186880806818082030BB
:104850002C03032C30200838C800C838080000009A
:10486000203F2000000010080808C8380800203841
:10487000262120201800000000FE02020200000095
:10488000007F40404000000C30C0000000000000ED
:1048900000010638C00000020202FE0000000040D5
:1048A00040407F00000000000402020204000000FB
:1048B00000000000000000000000000000008080F8
:1048C00080808080808000020204000000000000E0
:1048D00000000000000000008080808000000019BF
:1048E000242222223F2008F8008080000000003FA0
:1048F000112020110E000000008080800000000EBA
:10490000112020201100000000808088F800000E97
:10491000112020103F200000808080800000001FB8
:10492000222222221300008080F08888881800202C
:10493000203F202000000000808080808000006BED
:1049400094949493600008F8008080800000203FD9
:10495000210000203F2000809898000000000020E7
:10496000203F20200000000000809898000000C038
:104970008080807F000008F8000080808000203F59
:1049800024022D302000000808F80000000000205C
:10499000203F202000008080808080808000203F99
:1049A00020003F20003F8080008080800000203F6A
:1049B000210000203F200000808080800000001F38
:1049C000202020201F00808000808000000080FFC9
:1049D000A12020110E000000008080808000000EC9
:1049E000112020A0FF808080800080808000202017
:1049F0003F21200001000000808080808000003383
:104A0000242424241900008080E08080000000001D
:104A1000001F202000008080000000808000001F18
:104A2000202020103F2080808000008080800001B6
:104A30000E300806010080800080008080800F30EA
:104A40000C030C300F00008080008080800000206C
:104A5000312E0E3120008080800000808080808197
:104A60008E70180601000080808080808000002108
:104A7000302C2221300000000000807C0202000067
:104A80000000003F404000000000FF000000000068
:104A90000000FF0000000002027C800000000040D7
:104AA000403F000000000006010102020404000073
:104AB000000000000000FF1FEFF7F7EF1FFFFFF0FF
:104AC000EFDFDFEFF0FFFFFFEFEF07FFFFFFFFFF7D
:104AD000DFDFC0DFDFFFFF8FF7F7F7F70FFFFFCF55
:104AE000D7DBDDDECFFFFFCFF7F7F7778FFFFFE7ED
:104AF000DFDEDEDDE3FFFFFF7FBFCF07FFFFFFF954
:104B0000FADBDBC0DBDBFF07777777F7F7FFFFE642
:104B1000DFDFDFEEF1FFFF1FEF77776FFFFFFFF0C3
:104B2000EEDFDFDFE0FFFFE7F7F77797E7FFFFFF55
:104B3000FFC1FEFFFFFFFF8F77F7F7778FFFFFE3E0
:104B4000DDDEDEDDE3FFFF0FF7F7F7EF1FFFFFFE10
:104B5000EDDDDDEEF0FF0000784B000800000020E6
:104B600088070000DC0700081C4F000888070020A9
:104B700078060000CC3300080114232003720132B0
:104B800015032E0852251060028C2BFE920132FE76
:104B9000180A04047E01407E42427E024C427E405E
:104BA00020491F7920700C4448507F40407F504876
:104BB000444074C03FC01E804020100C94111F035D
:104BC0000C1020408011180A60F807101010D0FF58
:104BD000D00639AC180CFF1008040B08FF080B04B2
:104BE0000811112809FC242424FC25262408120479
:104BF000180F40308F80844C55252525554C8080DA
:104C00004016FC848484FC193C2C1010FF411A3F90
:104C1000091A3F48450640807F14F801062809F02C
:104C2000121212F2020202A132FF161F1111111FFD
:104C300049211D2018C744012AFC052A04C01B0471
:104C400007042B04FF051A041119FD5A2201293FFC
:104C50001D8040300F4A19013B42826019204A8270
:104C600001291F414BFF4001296A11380806090933
:104C7000E6F80C043253041E3D071F3020212A2081
:104C8000DF5E3E22E2223E6413E2021C203F209EB1
:104C9000112A7F8F2C44474090380AF484D4A5A66B
:104CA000A4D484F490200EFE0202123A1613121AB3
:104CB0003242827E1809100C2424A464252606158D
:104CC0002424140C1D40404849011A7F04254B48F8
:104CD00040402C0202C2FA39A2220219775A7F04FC
:104CE0002901112810201808EAACA8A8AFA8A8AC80
:104CF000EA0828189129AB1AFF662A22AF1540400E
:104D000042CC1808084888080808FF0419111B201D
:104D10001FBE2E414048504F401994280804F49477
:104D2000959694949F49A02B7A4A015D7A0282FE5F
:104D3000401C40A09E7E459EA02020200D3F9088D4
:104D400040432C10284641808018081715D5555728
:104D5000557D044CD51517A04A550129A449402179
:104D60002A840162FC147F20102A3FBD1441407048
:104D70005D80808292011BFE8050180E40402224EC
:104D80001048807F0408182422401AC0013A607736
:104D900001141B80801F0229402C010103014A07D6
:104DA00001190A3A01012913FC878FFF0149335A7F
:104DB000016A511F1080C0E06060912A181C2940D0
:104DC00001440F13060E0F1F3F7F811B8C88015972
:104DD0007D112B0202BF0935732D80C0C0E0015C3C
:104DE000C0C0C04F01102C010307888989220289A5
:104DF0008A01172D18787838013A18014A106B1972
:104E00006C596E89013EE3C7C7870701091FC23984
:104E100089347F7F03497F022C071C0E1F3FC599F1
:104E2000C71BFFFF0E0E293F3F1F1F0F4819C3412D
:104E300049400628FEF0E0C0801B20600119F12ADD
:104E4000C001C1080B1930703038381C1C1E0E060A
:104E500077180980C0E0E0F0F8FCFE7689805901FF
:104E6000280DFEFCF878B0F0E0E08080A0800181A1
:104E70003A40039944591C4921791B49095936196B
:104E8000075941280B606070F078B8F8FCFCFE759B
:104E9000A96FE98019011AF0044AF30B19071CFEE7
:104EA000FEFE36200BFEFFF0FC7E0A0606040433ED
:104EB0000201120110090202121212303030100EDB
:104EC00004141410101414161008081810131018D5
:104ED000173414905802021C16060627A118131046
:104EE0001111100707050F0F0F1F1F1F3F3F3F7FB7
:104EF0007F6219A02809060909E6F80C040201538B
:104F0000041E2E071F30204001034A20102D0102ED
:0C4F100003040405000607080900000067
:040000050800018965
:00000001FF
